:08000000803102288731FD2F39
:100F32002F0096019701980199019A019B010800DF
:100F4200603031008D008F019101053093009201D4
:100F520008008731992787318731D6278731873132
:100F6200A127873108008731AA278731200016146C
:100F72001530F1004B30F000BE30890BBE2FF00B64
:100F8200BE2FF10BBE2F0032200016101530F100DB
:100F92004B30F000BE30890BCC2FF00BCC2FF10B75
:100FA200CC2F0032B72F8031022820009601970102
:100FB2009801FE309100FF309200FF309300FF3025
:100FC2003E00CE00FF30C300FE30B800E501C40190
:100FD200B901CF01BA01C501D001FF30BB00FF301A
:100FE200C600FF30D100FF30BC00FF30C700FF3029
:0E0FF200D2000830E800080020008731B42F3C
:020000040001F9
:0A000E00EC3FFD3D9F3FFF3FFF3F29
:00000001FF
