:08000000803102288731F52F41
:100C7C0071082000DE007008DD00080071082000FB
:100C8C00E2007008E100080071082000E000700824
:100C9C00DF000800F100710886316D2686310800EE
:100CAC00640080010131890B572E00342F0096010E
:100CBC009701980199019A019B010800603031005D
:100CCC008D008F0191010530930092010800F00016
:100CDC002E000F1E722E732E6E2E700822009A009C
:100CEC00080086315C2686318631E12686318631D4
:100CFC006426863186319626863108005830FD00F0
:100D0C007D082000DA005708CF005608CE005A3074
:100D1C00FD007D08D00000308631B92686310800F0
:100D2C00083022009F0090309D0024309E00A0309F
:100D3C009B0001309C000030F0000030F100863147
:100D4C00442686310030F0000030F10086314A260E
:100D5C0086310030F0000030F10086313E268631BD
:100D6C002000C80108002000D3004F08D5004E0811
:100D7C00D400C001C101D32E5430D1005108FA0067
:100D8C005008D2005208FB00530887317B2786316C
:100D9C007A082000C0077B08C13D54088400550820
:100DAC0085001200031DDB2EDC2EC22E4108CF0065
:100DBC004008CE0008002000960197019801FE30F3
:100DCC009100FF309200FE309300FD303E00CE00CB
:100DDC00FF30C300FE30B800E501C401B901CF01FA
:100DEC00BA01C501D001FF30BB00FF30C600FF3097
:100DFC00D100FF30BC00FF30C700FF30D2000830FC
:100E0C00E8001030A00011303D00CB000800863106
:100E1C007726873186319626873100302000D60020
:100E2C008830D7008631842687312000161415307F
:100E3C002000DC004B30DB00BE30890B232FDB0B9A
:100E4C00232FDC0B232F0000200016101530200060
:100E5C00DC004B30DB00BE30890B322FDB0B322F2A
:100E6C00DC0B322F0000132F803102287408031979
:100E7C00402F412F462F7408031D452F462F4B2F13
:100E8C0072088631502687317A2F7408033E86000B
:100E9C008701160001040319542F552F722F740863
:100EAC00033E86008701403FF500413FF600740A7F
:100EBC0086008701403FF700413FF8007808803AF0
:100ECC00F9007608803A7902031D6E2F75087702B7
:100EDC000318712F722F7A2F740A86008701013044
:100EEC00810741310318810A0800FC007A0886004A
:100EFC008701403F2000C900413FCA0049088400D7
:100F0C004A0885001200253A031D8D2F8E2FD22FF3
:100F1C007A08860087010130810741310318810A64
:100F2C00C201C301C601C701FF30C400FF30C500B8
:100F3C007A0886008701403FC900413FCA00490832
:100F4C0084004A0885001200253A031DAE2FAF2FEE
:100F5C00C72F7A08860087010130810741310318B9
:100F6C00810A2530F2000030F3007C08C9004908E2
:100F7C00F40087313C2787310130FA000030FB0048
:100F8C00F42F7A088600870101308107413103185C
:100F9C00810AFA01FB01F42F7A0886008701403F91
:100FAC00C900413FCA00490884004A08850000086E
:100FBC00CB00CC014B08F2004C08F3007C08CD00B0
:100FCC004D08F40087313C2787317A088600870169
:100FDC000130810741310318810AC22F08002030EB
:100FEC008400003085002930863156268731200058
:100FFC0087310D2F48346F346C34613420346434B1
:10100C006534733464346534203465346C34203482
:08101C00753443340A3400343A
:020000040001F9
:0A000E00EC3FFD3D9F3FFF3FFF3F29
:00000001FF
